:020000040800F2
:10000000A8070020CD0100088D070008C1060008E0
:1000100089070008A502000843100008000000003E
:10002000000000000000000000000000710900084E
:10003000F50200080000000059080008570B0008EE
:10004000E7010008E7010008E7010008E7010008F0
:10005000E7010008E7010008E7010008E7010008E0
:10006000E7010008E7010008E7010008E7010008D0
:10007000E7010008E7010008E7010008E7010008C0
:10008000E7010008E7010008E7010008E7010008B0
:10009000E7010008E7010008E7010008E7010008A0
:1000A000E7010008590C0008E7010008E701000813
:1000B000E7010008E7010008E7010008E701000880
:1000C000E7010008E7010008E7010008E701000870
:1000D000E7010008E7010008810D0008E7010008BA
:1000E000F9020008E7010008E7010008E70100083D
:1000F000E7010008E7010008E7010008E701000840
:10010000E7010008E7010008E7010008E70100082F
:10011000E7010008E7010008E7010008E70100081F
:10012000E7010008E7010008E7010008E70100080F
:1001300000F002F800F03AF80AA090E8000C8244BF
:100140008344AAF10107DA4501D100F02FF8AFF29C
:10015000090EBAE80F0013F0010F18BFFB1A43F0A5
:1001600001031847880F0000A80F0000103A24BFB1
:1001700078C878C1FAD8520724BF30C830C144BF0C
:1001800004680C607047000000230024002500264E
:10019000103A28BF78C1FBD8520728BF30C148BFEA
:1001A0000B6070471FB51FBD10B510BD00F031F8D2
:1001B0001146FFF7F7FF00F08FFF00F04FF803B490
:1001C000FFF7F2FF03BC00F053F800000948804736
:1001D00009480047FEE7FEE7FEE7FEE7FEE7FEE729
:1001E000FEE7FEE7FEE7FEE704480549054A064B41
:1001F00070470000590B000831010008A8010020D9
:10020000A8070020A8030020A8030020704770471B
:100210007047754600F028F8AE460500694653461B
:1002200020F00700854618B020B5FFF7DDFFBDE8D8
:1002300020404FF000064FF000074FF000084FF04D
:10024000000B21F00701AC46ACE8C009ACE8C009DE
:10025000ACE8C009ACE8C0098D4670470446AFF36E
:1002600000802046FFF7ABFF0048704744010020A4
:1002700001491820ABBEFEE726000200704710B50A
:1002800000F020FA4FF47A3000F094FD472140F25C
:10029000CF7000F0AFFC00F08FFC00F0B1FA00F07E
:1002A0007BF810BD00BFFEE710B500F03FFC00F08A
:1002B000EFFB0C48007858B90B4800780112094848
:1002C0008170094801780748C1700120054908700C
:1002D00000F032FA054800F0B6FE054800F04AFB8F
:1002E00010BD00004000002014000020000000208D
:1002F000420100207047000010B54FF4806000F00C
:1003000093F8E8B14FF4806000F082F84FF4806019
:1003100000F084F81D480068401C1C4908601C4817
:100320000068012806D11B480088401C00B219490A
:10033000088005E017480088401E00B21549088073
:100340004FF4006000F070F860B14FF4006000F00E
:100350005FF84FF4006000F061F80C484068401C02
:100360000A4948604FF4805000F05EF860B14FF4E5
:10037000805000F04DF84FF4805000F04FF80348E3
:100380008068401C0149886010BD000054000020B6
:100390002C012242140000200EB50121084600F075
:1003A0006DFA0A21022000F095F84FF48060019068
:1003B00000208DF808000C208DF8090001208DF830
:1003C0000A0001A800F03CF80B21022000F082F89E
:1003D0004FF40060019001A800F032F80C210220D7
:1003E00000F078F84FF48050019001A800F028F850
:1003F00028208DF8000002208DF801008DF8020001
:1004000001208DF80300684600F0C2F90EBD00001F
:100410000149086070470000140401400149086068
:10042000704700001404014001460020034A12688E
:100430000A400AB1012000E0002070471404014086
:10044000002123498279002A3AD00A4612680368BB
:100450009A430B461A600A1D126803689A430B1DE3
:100460001A60027911440A6803681A430A60184A3C
:100470000832126803689A43154B08331A601A1D34
:10048000126803689A43124B0C331A604279102A9F
:100490000ED11A1F126803681A430D4B08331A60F5
:1004A0001A1D126803681A43094B0C331A600DE0D9
:1004B0000749427911440A6803681A430A6005E053
:1004C000027911440A6803689A430A607047000081
:1004D0000004014030B500228B071C0F0F2303FAE4
:1004E00004F20B4B8C1053F824309343084C8D10BE
:1004F00044F8253023468C1053F824308C07240F01
:1005000000FA04F42343024C8D1044F8253030BD2A
:10051000080001402DE9F041024600250026002098
:1005200000230024002791F803C00CF00F0591F878
:1005300003C00CF0100CBCF1000F03D091F802C006
:100540004CEA050591F800C0BCF1000F31D01468E9
:1005500000202BE04FF0010C0CFA00F3B1F800C0C2
:100560000CEA03069E4220D183004FF00F0C0CFAD8
:1005700003F7BC4305FA03FC4CEA040491F803C0FA
:10058000BCF1280F06D14FF0010C0CFA00FCC2F8A8
:1005900014C00AE091F803C0BCF1480F05D14FF038
:1005A000010C0CFA00FCC2F810C0401C0828D1D382
:1005B0001460B1F800C0BCF1FF0F34DD54680020B6
:1005C0002EE000F1080C4FF0010808FA0CF3B1F826
:1005D00000C00CEA03069E4221D183004FF00F0CAD
:1005E0000CFA03F7BC4305FA03FC4CEA040491F847
:1005F00003C0BCF1280F05D100F1080C08FA0CF873
:10060000C2F8148091F803C0BCF1480F07D100F183
:10061000080C4FF0010808FA0CF8C2F81080401CD2
:100620000828CED35460BDE8F0810000F0B50A463A
:10063000002300240021002500F00046B6F1004F01
:1006400002D11D4EF16901E01B4E7168C0F30345F4
:1006500083B200F44016B6F5401F08D121F0706156
:10066000154E766826F07066134F7E6012E000F437
:100670008016B6F5801F06D1032606FA05F4A143BD
:1006800041F0706106E0460D360103FA06F6B1430B
:1006900041F0706122B1460D360103FA06F631438E
:1006A00000F00046B6F1004F02D1034EF16101E0C7
:1006B000014E7160F0BD0000000001400161704713
:1006C00000BFFEE708B50121042000F0D7F80121A2
:1006D000084600F0D3F801210A48FFF7A7FF2120C0
:1006E000ADF8000010208DF8030003208DF8020003
:1006F00069460548FFF70EFF21210348FFF7DEFF9B
:1007000008BD0000000230000008014008480068F1
:10071000FA21B0FBF1F201FB120038B9054800687C
:1007200008B9012000E0002002490860704700007D
:10073000100000209401214210B54021104800F023
:10074000AFFB01281BD10F480078012817D15A2090
:100750000C494870A5210B4841718279401C815C8D
:10076000074800F06AFC07488079401C05498871F9
:1007700008468079042802DD00200870887110BDC9
:10078000003801404000002000BFFEE77047000035
:1007900070B5002100230F22C47804B3154C2468DF
:1007A00004F4E064C4F5E064210AC1F10403CA4022
:1007B000447804FA03F184781440214309010E4C73
:1007C0000678A155047804F01F050124AC40057893
:1007D0006D11AD0005F1E025C5F8004109E0047890
:1007E00004F01F050124AC40044D0678761145F84D
:1007F000264070BD0CED00E000E400E080E100E088
:1008000008B501210C2000F039F8C020ADF8000037
:1008100028208DF8030003208DF8020069460C485B
:10082000FFF778FEC0210A48FFF748FF0320ADF824
:10083000000028208DF8030003208DF8020069468F
:100840000448FFF767FE03210248FFF737FF08BDA2
:1008500000080140000C01407047000029B1064A21
:10086000D2690243044BDA6104E0034AD26982434D
:10087000014BDA61704700000010024029B1064ABE
:1008800092690243044B9A6104E0034A92698243ED
:10089000014B9A61704700000010024030B5002102
:1008A0000022002400232D4D6D6805F00C0121B1BC
:1008B000042905D0082923D105E0294D056022E04F
:1008C000274D05601FE0254D6D6805F47012234D1E
:1008D0006D6805F48034022505EB92421CB9214D68
:1008E000554305600BE01D4D6D6805F400351DB1E5
:1008F0001C4D5543056002E0194D5543056002E06B
:10090000174D056000BF00BF144D6D6805F0F00184
:100910000909154D6B5C0568DD4045600F4D6D683C
:1009200005F4E061090A104D6B5C4568DD408560A7
:100930000A4D6D6805F46051C90A0B4D6B5C456842
:10094000DD40C560054D6D6805F44041890B074DDC
:100950006B5CC568B5FBF3F5056130BD0010024066
:1009600000127A0000093D002C0000203C0000200D
:1009700070470000017801EB4102C2EBC1114FF654
:10098000FF7202EA0111074A1180417801EB41022E
:10099000C2EBC1114FF6FF7202EA0111014A121DAA
:1009A000118070473404004010B500F001F810BD0C
:1009B0000CB50020019000903348006840F480306E
:1009C0003149086000BF3048006800F400300090F2
:1009D0000198401C0190009818B90198B0F5A06FDB
:1009E000F1D12948006800F4003010B101200090D6
:1009F00001E0002000900098012843D123480068BE
:100A000040F01000214908600846006820F003000B
:100A100008600846006840F0020008601A48406814
:100A2000194948600846406848600846406840F4F4
:100A3000806048600846406820F47C1048600846A2
:100A4000406840F4E81048600846006840F0807054
:100A5000086000BF0C48006800F000700028F9D062
:100A60000948406820F0030007494860084640688C
:100A700040F00200486000BF0348406800F00C00EE
:100A80000828F9D10CBD00000010024000200240EF
:100A90001FB50022009201920292039200200021D1
:100AA00000BF0CE000222DF810201F4A135C093211
:100AB00002EB00121C4C247A1355421CD0B20828B9
:100AC000F0DB002012E000210CE03DF81030164A67
:100AD000093202EB0012525C1A4492B22DF8102037
:100AE0004A1CD1B21029F0DB421CD0B20828EADB44
:100AF00000200BE03DF81020082A01DD012300E072
:100B00000023094A89321354421CD0B20828F1DB71
:100B1000054A127A0F2A03DA034A127A521C00E0BD
:100B20000022014B1A721FBD60000020704704288C
:100B300008D14FF0E021096941F004014FF0E022B3
:100B4000116107E04FF0E021096921F004014FF045
:100B5000E02211617047704710B51348006840F0FB
:100B600001001149086008464068104908400E49D4
:100B70004860084600680E4908400B49086008466E
:100B8000006820F4802008600846406820F4FE00D9
:100B900048604FF41F008860FFF706FF4FF00060C9
:100BA0000449086010BD0000001002400000FFF87A
:100BB000FFFFF6FE08ED00E008B501211020FFF769
:100BC0005DFE01210846FFF759FE01210748FFF7A6
:100BD0002DFD4FF4FE50ADF8000048208DF80300C5
:100BE00069460348FFF796FC08BD0000000230008C
:100BF000001001407FB505460C460121C802FFF7F1
:100C00003DFEADF80850ADF804400020ADF80A00F4
:100C1000ADF806008DF80C0001A90E4800F05EF852
:100C2000012211460B4800F04FF819208DF8000002
:100C300000208DF8010003208DF8020001208DF8BE
:100C400003006846FFF7A4FD0121024800F01FF8E9
:100C50007FBD0000002C014010B50121084800F0C4
:100C600022F860B10121064800F00EF8054800683E
:100C7000401C04490860FFF749FDFFF715FB10BD54
:100C8000002C014010000020CA430282704721B1AD
:100C9000028842F00102028004E002884FF6FE73EF
:100CA0001A400280704730B502460020002300241D
:100CB000158A05EA0103958905EA010413B10CB10F
:100CC000012000E0002030BD1AB183890B438381ED
:100CD00002E083898B4383817047000000220288F1
:100CE0001D4B98420ED01D4B98420BD0B0F1804F57
:100CF00008D01B4B984205D01A4B984202D01A4B91
:100D0000984204D14FF68F731A404B881A43174B01
:100D1000984207D0164B984204D04FF6FF431A4032
:100D2000CB881A4302808B8883850B8803850A4B06
:100D300098420BD0094B984208D00E4B984205D0F0
:100D40000D4B984202D00D4B984201D10B7A03868D
:100D50000123838270470000002C014000340140D1
:100D60000004004000080040000C0040001000405B
:100D70000014004000400140004401400048014090
:100D800010B540F22551094800F097F868B12021CC
:100D9000064800F061F840F22551044800F065F87B
:100DA000024800F045F90249087010BD00440040B7
:100DB0001600002010B586B0044601214804FFF754
:100DC0004DFD01210420FFF759FD0420ADF814006A
:100DD00003208DF8160018208DF8170005A91C486F
:100DE000FFF798FB0820ADF8140004208DF81700D9
:100DF00005A91748FFF78EFB26208DF80000032079
:100E00008DF801008DF8020001208DF8030068467E
:100E1000FFF7BEFC01940020ADF80800ADF80A0011
:100E2000ADF80C00ADF810000C20ADF80E0001A9D3
:100E3000084800F091F8012240F22551054800F0E1
:100E400066F80121034800F01FF806B010BD00004D
:100E5000000801400044004001F40072B2F5007F38
:100E600000D100BFCA430280704710B500220023A2
:100E700040F66A14A14200D100BF0A120124944036
:100E8000A3B2DC43048010BD21B1828942F4005238
:100E9000828104E082894DF6FF731A408281704797
:100EA00002460020B1F5007F00D100BF13880B403F
:100EB0000BB1012000E00020704770B5024600240D
:100EC00000230025002040F66A16B14200D100BF81
:100ED000C1F3421501F01F03012606FA03F3012DA9
:100EE00002D19689334006E0022D02D1168A3340A2
:100EF00001E0968A33400C12012606FA04F41688A3
:100F0000344013B10CB1012000E0002070BDF0B5F9
:100F10000346002400260025002040F66A17B94247
:100F200000D100BF1846C1F3421401F01F0601278B
:100F300007FA06F5012C01D10C3004E0022C01D196
:100F4000103000E014301AB107682F43076002E048
:100F50000768AF430760F0BD2DE9F04786B005464E
:100F60000E460024A24600BFA1460027B08900B16A
:100F700000BF2F462C8A4CF6FF700440F0880443D3
:100F80002C82AC894EF6F3100440B08831890843B6
:100F9000718908430443AC81AC8A4FF6FF4004409A
:100FA000B0890443AC8201A8FFF778FC1F48874250
:100FB00002D1DDF810A001E0DDF80CA0A88900F452
:100FC000004040B10AEBCA0000EB0A10316849004A
:100FD000B0FBF1F807E00AEBCA0000EB0A10316839
:100FE0008900B0FBF1F86420B8FBF0F0040120099F
:100FF000642101FB1089A88900F4004040B132202F
:1010000000EBC900B0FBF1F000F00700044308E07A
:10101000322000EB09106421B0FBF1F000F00F006A
:1010200004432C8106B0BDE8F08700000038014081
:1010300001468888C0F308007047C1F30802828027
:10104000704700BFFEE7704710B56FF00400FFF770
:101050006EFD0A4800680A49B0FBF1F009490870C2
:101060000846007800EB4001C1EBC0104FF6FF715D
:1010700001EAC0000449088010BD000018000020EB
:1010800000127A000C0000200E0000200146114AD8
:1010900012884A434FF0E0235A6100229A611A46AF
:1010A000126942F001021A6100BF4FF0E02210699C
:1010B00000F001021AB100F48032002AF5D04FF09E
:1010C000E022126922F001024FF0E0231A610022AF
:1010D0009A6170470E000020FFF7B6FFC820FFF7A7
:1010E000D5FFFFF7CCF800BFFEE700000C110008A9
:1010F00000000020540000006C010008601100088E
:10110000540000205407000088010008000000007F
:1011100000000000000000000000000000000000CF
:101120000000000000A24A040000000000000000CF
:10113000010203040607080900000000010203047D
:10114000010203040607080902040608005A000009
:1011500000A50000000000000000000000000000EA
:0400000508000131BD
:00000001FF
